:0A000000882D000000000000002D14
:10000A00710DF80DF90D7408F8027508031C750FC7
:10001A00F902F00DF10D0F30FC00710DF80DF90D1C
:10002A007408701C1E28F8027508031C750FF90263
:10003A002328F80775080318750FF907F00DF10D55
:10004A00FC0B122870182F287408F8077508031873
:08005A00750FF9070000080012
:0E006200F201F101F001F801F3010030080095
:100070007B15FB1F42280130F300F201F101F00172
:08008000FA0DF20CFF3008003C
:08008800FA1FF213003008001A
:0E009000831203132B088A002A08820008003E
:10009E007B14FB1F5A28F201FA1FFF30F200F10009
:0A00AE00F000FA0DF20CFF3008001C
:0E00B8003330FD00FD0B5E2800000000080044
:1000C60084283F30831203138800D6280630880020
:1000D600D6285B308800D6284F308800D628663070
:1000E6008800D6286D308800D6287D308800D6282E
:1000F60007308800D6287F308800D6286F308800E1
:10010600D6288312031300304206031D8C280030C4
:1001160041060319642800304206031D9428013065
:1001260041060319692800304206031D9C28023047
:10013600410603196C2800304206031DA42803302B
:10014600410603196F2800304206031DAC2804300F
:1001560041060319722800304206031DB4280530F3
:1001660041060319752800304206031DBC280630D7
:1001760041060319782800304206031DC4280730BB
:10018600410603197B2800304206031DCC2808309F
:10019600410603197E2800304206031DD428093083
:1001A6004106031981280330FB000830FC00773034
:1001B600FD00FD0BDC28FC0BDC28FB0BDC28F0012A
:0401C600F10108003B
:1001CA0083120313FD01F901F80171087004031980
:1001DA00003471087506FA00FA1BFD09FB01F51FC8
:1001EA00FB28F409F509F40A0319F50AF11F022993
:1001FA00F009F109F00A0319F10A71087504FA0005
:10020A00FA1B172905207B182A29FD1F0034F0093B
:10021A00F109F00A0319F10AF809F909F80A0319A8
:10022A00F90A0034F51F2629F11B22297108F90061
:10023A007008F800F101F0010A29F101F001F00A51
:10024A000034F109F009FB0A0729F80A0319F90A27
:10025A0074087802031D0A2975087902031D0A2900
:10026A00F901F801F00A0319F10AF11F0A2900003D
:04027A00FF34080045
:06027E0000000000080072
:10028400A0017208031D57297108F2007008F100DB
:10029400F001A0157208031D57297108F200F1013D
:1002A400A01120167208031965292008F302031D02
:1002B400031C69290310F21B6D29F00DF10DF20DD9
:1002C400F30B5D2969290130FC00312070290230CB
:0E02D400FC00382070290430FC004420080093
:1002E2000230FC004930FD00FD0B7529FC0B75291D
:0602F200000000000800FE
:1002F800FB14FB1F8629FF30F300F200F100F00029
:08030800FA0DF20CFF300800B1
:0C0310000E30FD00FD0B8A2900000800E3
:0A031C002130FD00FD0B90290800C0
:10032600B4293F30831203138800062A063088005A
:10033600062A5B308800062A4F308800062A663077
:100346008800062A6D308800062A7D308800062A35
:1003560007308800062A7F308800062A6F3088001A
:10036600062A8312031300304206031DBC290030FF
:1003760041060319942900304206031DC4290130A1
:1003860041060319992900304206031DCC29023083
:10039600410603199C2900304206031DD429033067
:1003A600410603199F2900304206031DDC2904304B
:1003B60041060319A22900304206031DE42905302F
:1003C60041060319A52900304206031DEC29063013
:1003D60041060319A82900304206031DF4290730F7
:1003E60041060319AB2900304206031DFC290830DB
:1003F60041060319AE2900304206031D042A0930BE
:1004060041060319B1290330FB000830FC007730A0
:10041600FD00FD0B0C2AFC0B0C2AFB0B0C2AF00131
:04042600F1010800D8
:10042A00362A3F30831203138800882A0630880050
:10043A00882A5B308800882A4F308800882A6630EC
:10044A008800882A6D308800882A7D308800882AAA
:10045A0007308800882A7F308800882A6F30880011
:10046A00882A8312031300304206031D3E2A0030F5
:10047A0041060319162A00304206031D462A013096
:10048A00410603191B2A00304206031D4E2A023078
:10049A00410603191E2A00304206031D562A03305C
:1004AA0041060319212A00304206031D5E2A043040
:1004BA0041060319242A00304206031D662A053024
:1004CA0041060319272A00304206031D6E2A063008
:1004DA00410603192A2A00304206031D762A0730EC
:1004EA00410603192D2A00304206031D7E2A0830D0
:1004FA0041060319302A00304206031D862A0930B4
:10050A0041060319332A0330FB000830FC00773018
:10051A00FD00FD0B8E2AFC0B8E2AFB0B8E2AF001A6
:04052A00F1010800D3
:10052E00831203137008F8007108F000F101F20154
:10053E00F301FB01FC019630F300FA017008F100A3
:0C054E007808F000F801F20142210800DA
:10055A008316031398169030831298008316871710
:10056A00071383128C1EBC2A1A08F000B62A080048
:10057A000A3083120313F4000030F5003908F00042
:10058A003A08F100E5207808F0007908F1007008CF
:10059A00BB007108BC000A30F4000030F5003908CD
:1005AA00F0003A08F100E5207008B9007108BA00B5
:1005BA000A30F4000030F500E5207808F0007908E8
:1005CA00F1007008BD007108BE000A30F400003066
:1005DA00F5003908F0003A08F100E5207008B90082
:1005EA007108BA000A30F4000030F500E5207808F6
:1005FA00F0007908F1007008BF007108C000AC0172
:10060A0004302C020318202B083085003F08C10053
:10061A004008C2006320043085003D08C1003E083E
:10062A00C2009321023085003B08C1003C08C20089
:0C063A001522AC0A052BF001F1010800AC
:1006460083120313FB017308031D770803197A2B22
:1006560072087606FA007708F3077E30031C372BFC
:10066600F30203187D2B3A2BF302031C802B72082E
:10067600F8007108FC007008FD00F817F617031063
:10068600F201F101F0011830A0007D1C542B740812
:10069600F00775080318750FF10776080318760F2B
:1006A600F207F20CF10CF00CF80CFC0CFD0C03102C
:1006B600A00B482BF21B642BF80DF00DF10DF20D7B
:1006C600F3037B1B701C762BF81F762BF00A03199D
:1006D600F10A0319F20A031D762BF20CF10CF00C49
:1006E600F30A03197D2BFA1FF2130030822B013017
:1006F6003120822B02307C21822B043038200000EE
:020706000800E9
:10070800831203133A08F1000130F000710803194D
:10071800912BF00D7010FF3E8B2B7008BE007009F6
:10072800BD0039088400BC01BB013B08073C031C21
:10073800BD2B3D08800584173D0880053F213E08F4
:1007480080043F2184133E080005F0000319B92BEB
:100758003B08F1000130F00071080319B72BF00DC8
:100768007010FF3EB12B7008BC048E218E21BB0A8D
:08077800992B3C08F000080079
:10078000C030831203139F003908F000F00D701081
:10079000F00D701070089F0483169F1783121F14AA
:1007A00088219F149F1CD62B0000D22B1F101E08DF
:1007B000F100F00183161E08F0040030F104080077
:1007C00083120313FB01FC01FA01730803190D2CBA
:1007D000FA13F2178630F302F31BF12B0319F12BF6
:1007E0000F2CF309F30A08307302031CFE2BF300ED
:1007F000F20DF2017308031D0310052C7308031991
:10080000052C0310F20CF30B012C7B1B721C0D2C1E
:10081000031C0D2CF20A0319142CF101172C7B1464
:10082000FB1F1A2CF1011A2C0130FC001C2C00308B
:10083000FC001C2CFF30FC00FC080319202C4F206E
:060840007208F000080040
:10084600831203133A08F1000130F000710803190E
:10085600302CF00D7010FF3E2A2C7008BE00F009F7
:100866007008BD0039088400700880058417BC0133
:100876003C08073C031C552C3C08F0003B08F100E3
:10088600700803194A2CF10CF113FF3E442C3D0865
:100896008005711C502C3E0880045C203E088004B4
:0C08A600BC0A3B2C84138E218E2108001C
:1008B200831203133A08F1000130F00071080319A2
:1008C200662CF00D7010FF3E602C7008BC00F00921
:1008D200390884007008800584177008800571212A
:1008E2003C08800484135C203C080005BB003B08E4
:1008F200003A013003190030BB0071213B08F000BF
:020902000800EB
:1009040048208A110A128000840AAA0A0319AB0A31
:08091400F003031D822C080012
:10091C0083120313FB0173080319CB2C7208FA0022
:10092C00F2178E30F302F31FCE2CF309F30A0830C2
:10093C007302031CB12CF300F10D7208F100F201EB
:10094C0008307302031CB12CF300F10DF101730894
:10095C00031D0310B92C73080319B92C0310F20CE6
:10096C00F10CF30BB42C7B1B711CC32C031CC32C80
:10097C00F10A0319F20AF21BDA2CFA1FDD2CF20928
:10098C00F109F10A0319F20ADD2CF201F101DD2C57
:10099C007B14FB1FE02CF201FA1FE02CFF30F2005D
:1009AC00F100FA0DF20CE02C0130FC00E22C0030CE
:1009BC00FC00E22CFF30FC00FC080319E62C4F2055
:0A09CC007108F0007208F100080045
:1009D600831203131A08B500981CF32C1812181664
:0609E6003508F0000800D6
:1009EC00831603139818FC2C0000F62C8312430872
:0409FC009900080056
:100A0000FF00030E8301B7000A08B8008A017008CE
:100A1000A8007108A7007208A6007308A500740852
:100A2000A4007B08A3007C08A2007D08A100EB24A1
:100A30007008B20070086F3A031D2C2D0630FB00C1
:100A40001330FC00AD30FD00FD0B242DFC0B242DDC
:100A5000FB0B242D00000000EB247008B200891469
:100A60007008AA3A031D372D3308C300F624320854
:100A7000FA3A031D3E2D3608C300F6243208CA3A5E
:100A8000031D452D2908C300F62432089A3A031D98
:100A90004C2D2D08C300F6243208F03A031D6F2DAB
:100AA0000909F1000730F0007108F300F401700843
:100AB00003195F2DF30DF40D7310FF3E582D073011
:100AC000F2007308F0007408F100720803196D2D2C
:100AD000F10CF00CF113FF3E662D70088900013017
:100AE00089052808F0002708F1002608F2002508EB
:100AF000F3002408F4002308FB002208FC0021086E
:100B0000FD0038088A00370E8300FF0E7F0E0900B3
:100B100083120313A901113083160317880089017A
:100B2000213003138500880108088600FF30870004
:100B3000831287018901090888000808860033307C
:100B4000831699001815AD220330F0000908F30050
:100B5000F40170080319B12DF30DF40D7310FF3E6D
:100B6000AA2D7308F0007408F100F10CF00CF113D9
:100B7000F10CF00CF113F10CF00CF1137008A9005A
:100B80000930B9000230BA0059240930B9000230E6
:100B9000BA00CC30BB0023240930B9000230BA00BF
:100BA0004430BB0023244F30FD00FD0BD52D000049
:100BB00000000930B9000230BA0059240930B900E8
:100BC0000230BA00CC30BB0023240930B900023017
:100BD000BA00BE30BB0023240930B9000230BA008D
:100BE00084237008B3000930B9000230BA008423AE
:100BF000F1013308F1077108B3007108F300F40143
:100C0000F30DF40D73107308F0007408F100F10C8B
:100C1000F00CF11397228F30F400C230F5007530DC
:100C2000F6007D30F7002323E0237008B400043081
:100C3000B900C0237008F2007108F300F30CF20C45
:100C4000F313F30CF20CF31372088312B600B9011C
:100C5000C0237008F3007108F400F40CF30CF413D3
:100C6000F40CF30CF4137308F0007408F100F00DA9
:100C7000F10D7010F00DF10D701097223330F4006B
:100C80003330F5003330F6007D30F7002323700851
:100C9000AE007108AF007208B0007308B100B9016E
:100CA000C0237008F2007108F300F30CF20CF31388
:100CB000F30CF20CF31372088312AD002E08F0004F
:100CC0002F08F1003008F2003108F3008E2470087C
:100CD000B9007108BA00BD2234081D3C0318752EF6
:0E0CE000233036020318752E0914A42D762E2B
:04400E00F22F000786
:00000001FF
